{
  "_format": "hh-sol-artifact-1",
  "contractName": "AtomyNFTs",
  "sourceName": "contracts/AtomyNFTs.sol",
  "abi": [
    {
      "inputs": [],
      "stateMutability": "nonpayable",
      "type": "constructor"
    },
    {
      "anonymous": false,
      "inputs": [
        {
          "indexed": true,
          "internalType": "address",
          "name": "owner",
          "type": "address"
        },
        {
          "indexed": true,
          "internalType": "address",
          "name": "approved",
          "type": "address"
        },
        {
          "indexed": true,
          "internalType": "uint256",
          "name": "tokenId",
          "type": "uint256"
        }
      ],
      "name": "Approval",
      "type": "event"
    },
    {
      "anonymous": false,
      "inputs": [
        {
          "indexed": true,
          "internalType": "address",
          "name": "owner",
          "type": "address"
        },
        {
          "indexed": true,
          "internalType": "address",
          "name": "operator",
          "type": "address"
        },
        {
          "indexed": false,
          "internalType": "bool",
          "name": "approved",
          "type": "bool"
        }
      ],
      "name": "ApprovalForAll",
      "type": "event"
    },
    {
      "anonymous": false,
      "inputs": [
        {
          "indexed": false,
          "internalType": "uint256",
          "name": "_fromTokenId",
          "type": "uint256"
        },
        {
          "indexed": false,
          "internalType": "uint256",
          "name": "_toTokenId",
          "type": "uint256"
        }
      ],
      "name": "BatchMetadataUpdate",
      "type": "event"
    },
    {
      "anonymous": false,
      "inputs": [
        {
          "indexed": false,
          "internalType": "uint256",
          "name": "_tokenId",
          "type": "uint256"
        }
      ],
      "name": "MetadataUpdate",
      "type": "event"
    },
    {
      "anonymous": false,
      "inputs": [
        {
          "indexed": true,
          "internalType": "address",
          "name": "from",
          "type": "address"
        },
        {
          "indexed": true,
          "internalType": "address",
          "name": "to",
          "type": "address"
        },
        {
          "indexed": true,
          "internalType": "uint256",
          "name": "tokenId",
          "type": "uint256"
        }
      ],
      "name": "Transfer",
      "type": "event"
    },
    {
      "inputs": [
        {
          "internalType": "address",
          "name": "to",
          "type": "address"
        },
        {
          "internalType": "uint256",
          "name": "tokenId",
          "type": "uint256"
        }
      ],
      "name": "approve",
      "outputs": [],
      "stateMutability": "nonpayable",
      "type": "function"
    },
    {
      "inputs": [
        {
          "internalType": "address",
          "name": "owner",
          "type": "address"
        }
      ],
      "name": "balanceOf",
      "outputs": [
        {
          "internalType": "uint256",
          "name": "",
          "type": "uint256"
        }
      ],
      "stateMutability": "view",
      "type": "function"
    },
    {
      "inputs": [
        {
          "internalType": "uint256",
          "name": "tokenId",
          "type": "uint256"
        }
      ],
      "name": "getApproved",
      "outputs": [
        {
          "internalType": "address",
          "name": "",
          "type": "address"
        }
      ],
      "stateMutability": "view",
      "type": "function"
    },
    {
      "inputs": [
        {
          "internalType": "address",
          "name": "owner",
          "type": "address"
        },
        {
          "internalType": "address",
          "name": "operator",
          "type": "address"
        }
      ],
      "name": "isApprovedForAll",
      "outputs": [
        {
          "internalType": "bool",
          "name": "",
          "type": "bool"
        }
      ],
      "stateMutability": "view",
      "type": "function"
    },
    {
      "inputs": [
        {
          "internalType": "address",
          "name": "receipient",
          "type": "address"
        },
        {
          "internalType": "string",
          "name": "URI",
          "type": "string"
        }
      ],
      "name": "mintNFT",
      "outputs": [
        {
          "internalType": "uint256",
          "name": "",
          "type": "uint256"
        }
      ],
      "stateMutability": "nonpayable",
      "type": "function"
    },
    {
      "inputs": [],
      "name": "name",
      "outputs": [
        {
          "internalType": "string",
          "name": "",
          "type": "string"
        }
      ],
      "stateMutability": "view",
      "type": "function"
    },
    {
      "inputs": [
        {
          "internalType": "uint256",
          "name": "tokenId",
          "type": "uint256"
        }
      ],
      "name": "ownerOf",
      "outputs": [
        {
          "internalType": "address",
          "name": "",
          "type": "address"
        }
      ],
      "stateMutability": "view",
      "type": "function"
    },
    {
      "inputs": [
        {
          "internalType": "address",
          "name": "from",
          "type": "address"
        },
        {
          "internalType": "address",
          "name": "to",
          "type": "address"
        },
        {
          "internalType": "uint256",
          "name": "tokenId",
          "type": "uint256"
        }
      ],
      "name": "safeTransferFrom",
      "outputs": [],
      "stateMutability": "nonpayable",
      "type": "function"
    },
    {
      "inputs": [
        {
          "internalType": "address",
          "name": "from",
          "type": "address"
        },
        {
          "internalType": "address",
          "name": "to",
          "type": "address"
        },
        {
          "internalType": "uint256",
          "name": "tokenId",
          "type": "uint256"
        },
        {
          "internalType": "bytes",
          "name": "data",
          "type": "bytes"
        }
      ],
      "name": "safeTransferFrom",
      "outputs": [],
      "stateMutability": "nonpayable",
      "type": "function"
    },
    {
      "inputs": [
        {
          "internalType": "address",
          "name": "operator",
          "type": "address"
        },
        {
          "internalType": "bool",
          "name": "approved",
          "type": "bool"
        }
      ],
      "name": "setApprovalForAll",
      "outputs": [],
      "stateMutability": "nonpayable",
      "type": "function"
    },
    {
      "inputs": [
        {
          "internalType": "bytes4",
          "name": "interfaceId",
          "type": "bytes4"
        }
      ],
      "name": "supportsInterface",
      "outputs": [
        {
          "internalType": "bool",
          "name": "",
          "type": "bool"
        }
      ],
      "stateMutability": "view",
      "type": "function"
    },
    {
      "inputs": [],
      "name": "symbol",
      "outputs": [
        {
          "internalType": "string",
          "name": "",
          "type": "string"
        }
      ],
      "stateMutability": "view",
      "type": "function"
    },
    {
      "inputs": [
        {
          "internalType": "uint256",
          "name": "index",
          "type": "uint256"
        }
      ],
      "name": "tokenByIndex",
      "outputs": [
        {
          "internalType": "uint256",
          "name": "",
          "type": "uint256"
        }
      ],
      "stateMutability": "view",
      "type": "function"
    },
    {
      "inputs": [
        {
          "internalType": "address",
          "name": "owner",
          "type": "address"
        },
        {
          "internalType": "uint256",
          "name": "index",
          "type": "uint256"
        }
      ],
      "name": "tokenOfOwnerByIndex",
      "outputs": [
        {
          "internalType": "uint256",
          "name": "",
          "type": "uint256"
        }
      ],
      "stateMutability": "view",
      "type": "function"
    },
    {
      "inputs": [
        {
          "internalType": "uint256",
          "name": "tokenId",
          "type": "uint256"
        }
      ],
      "name": "tokenURI",
      "outputs": [
        {
          "internalType": "string",
          "name": "",
          "type": "string"
        }
      ],
      "stateMutability": "view",
      "type": "function"
    },
    {
      "inputs": [],
      "name": "totalSupply",
      "outputs": [
        {
          "internalType": "uint256",
          "name": "",
          "type": "uint256"
        }
      ],
      "stateMutability": "view",
      "type": "function"
    },
    {
      "inputs": [
        {
          "internalType": "address",
          "name": "from",
          "type": "address"
        },
        {
          "internalType": "address",
          "name": "to",
          "type": "address"
        },
        {
          "internalType": "uint256",
          "name": "tokenId",
          "type": "uint256"
        }
      ],
      "name": "transferFrom",
      "outputs": [],
      "stateMutability": "nonpayable",
      "type": "function"
    }
  ],
  "bytecode": "0x60806040523480156200001157600080fd5b506040518060400160405280600981526020017f41746f6d794e46547300000000000000000000000000000000000000000000008152506040518060400160405280600481526020017f414e46540000000000000000000000000000000000000000000000000000000081525081600090816200008f919062000324565b508060019081620000a1919062000324565b5050506200040b565b600081519050919050565b7f4e487b7100000000000000000000000000000000000000000000000000000000600052604160045260246000fd5b7f4e487b7100000000000000000000000000000000000000000000000000000000600052602260045260246000fd5b600060028204905060018216806200012c57607f821691505b602082108103620001425762000141620000e4565b5b50919050565b60008190508160005260206000209050919050565b60006020601f8301049050919050565b600082821b905092915050565b600060088302620001ac7fffffffffffffffffffffffffffffffffffffffffffffffffffffffffffffffff826200016d565b620001b886836200016d565b95508019841693508086168417925050509392505050565b6000819050919050565b6000819050919050565b600062000205620001ff620001f984620001d0565b620001da565b620001d0565b9050919050565b6000819050919050565b6200022183620001e4565b6200023962000230826200020c565b8484546200017a565b825550505050565b600090565b6200025062000241565b6200025d81848462000216565b505050565b5b8181101562000285576200027960008262000246565b60018101905062000263565b5050565b601f821115620002d4576200029e8162000148565b620002a9846200015d565b81016020851015620002b9578190505b620002d1620002c8856200015d565b83018262000262565b50505b505050565b600082821c905092915050565b6000620002f960001984600802620002d9565b1980831691505092915050565b6000620003148383620002e6565b9150826002028217905092915050565b6200032f82620000aa565b67ffffffffffffffff8111156200034b576200034a620000b5565b5b62000357825462000113565b6200036482828562000289565b600060209050601f8311600181146200039c576000841562000387578287015190505b62000393858262000306565b86555062000403565b601f198416620003ac8662000148565b60005b82811015620003d657848901518255600182019150602085019450602081019050620003af565b86831015620003f65784890151620003f2601f891682620002e6565b8355505b6001600288020188555050505b505050505050565b61342d806200041b6000396000f3fe608060405234801561001057600080fd5b506004361061010b5760003560e01c80634f6ccce7116100a2578063a22cb46511610071578063a22cb465146102de578063b88d4fde146102fa578063c87b56dd14610316578063e985e9c514610346578063eacabe14146103765761010b565b80634f6ccce7146102305780636352211e1461026057806370a082311461029057806395d89b41146102c05761010b565b806318160ddd116100de57806318160ddd146101aa57806323b872dd146101c85780632f745c59146101e457806342842e0e146102145761010b565b806301ffc9a71461011057806306fdde0314610140578063081812fc1461015e578063095ea7b31461018e575b600080fd5b61012a600480360381019061012591906120a5565b6103a6565b60405161013791906120ed565b60405180910390f35b6101486103b8565b6040516101559190612198565b60405180910390f35b610178600480360381019061017391906121f0565b61044a565b604051610185919061225e565b60405180910390f35b6101a860048036038101906101a391906122a5565b610490565b005b6101b26105a7565b6040516101bf91906122f4565b60405180910390f35b6101e260048036038101906101dd919061230f565b6105b4565b005b6101fe60048036038101906101f991906122a5565b610614565b60405161020b91906122f4565b60405180910390f35b61022e6004803603810190610229919061230f565b6106b9565b005b61024a600480360381019061024591906121f0565b6106d9565b60405161025791906122f4565b60405180910390f35b61027a600480360381019061027591906121f0565b61074a565b604051610287919061225e565b60405180910390f35b6102aa60048036038101906102a59190612362565b6107d0565b6040516102b791906122f4565b60405180910390f35b6102c8610887565b6040516102d59190612198565b60405180910390f35b6102f860048036038101906102f391906123bb565b610919565b005b610314600480360381019061030f9190612530565b61092f565b005b610330600480360381019061032b91906121f0565b610991565b60405161033d9190612198565b60405180910390f35b610360600480360381019061035b91906125b3565b6109a3565b60405161036d91906120ed565b60405180910390f35b610390600480360381019061038b9190612694565b610a37565b60405161039d91906122f4565b60405180910390f35b60006103b182610a6f565b9050919050565b6060600080546103c79061271f565b80601f01602080910402602001604051908101604052809291908181526020018280546103f39061271f565b80156104405780601f1061041557610100808354040283529160200191610440565b820191906000526020600020905b81548152906001019060200180831161042357829003601f168201915b5050505050905090565b600061045582610ad0565b6004600083815260200190815260200160002060009054906101000a900473ffffffffffffffffffffffffffffffffffffffff169050919050565b600061049b8261074a565b90508073ffffffffffffffffffffffffffffffffffffffff168373ffffffffffffffffffffffffffffffffffffffff160361050b576040517f08c379a0000000000000000000000000000000000000000000000000000000008152600401610502906127c2565b60405180910390fd5b8073ffffffffffffffffffffffffffffffffffffffff1661052a610b1b565b73ffffffffffffffffffffffffffffffffffffffff161480610559575061055881610553610b1b565b6109a3565b5b610598576040517f08c379a000000000000000000000000000000000000000000000000000000000815260040161058f90612854565b60405180910390fd5b6105a28383610b23565b505050565b6000600880549050905090565b6105c56105bf610b1b565b82610bdc565b610604576040517f08c379a00000000000000000000000000000000000000000000000000000000081526004016105fb906128e6565b60405180910390fd5b61060f838383610c71565b505050565b600061061f836107d0565b8210610660576040517f08c379a000000000000000000000000000000000000000000000000000000000815260040161065790612978565b60405180910390fd5b600660008473ffffffffffffffffffffffffffffffffffffffff1673ffffffffffffffffffffffffffffffffffffffff168152602001908152602001600020600083815260200190815260200160002054905092915050565b6106d48383836040518060200160405280600081525061092f565b505050565b60006106e36105a7565b8210610724576040517f08c379a000000000000000000000000000000000000000000000000000000000815260040161071b90612a0a565b60405180910390fd5b6008828154811061073857610737612a2a565b5b90600052602060002001549050919050565b60008061075683610f6a565b9050600073ffffffffffffffffffffffffffffffffffffffff168173ffffffffffffffffffffffffffffffffffffffff16036107c7576040517f08c379a00000000000000000000000000000000000000000000000000000000081526004016107be90612aa5565b60405180910390fd5b80915050919050565b60008073ffffffffffffffffffffffffffffffffffffffff168273ffffffffffffffffffffffffffffffffffffffff1603610840576040517f08c379a000000000000000000000000000000000000000000000000000000000815260040161083790612b37565b60405180910390fd5b600360008373ffffffffffffffffffffffffffffffffffffffff1673ffffffffffffffffffffffffffffffffffffffff168152602001908152602001600020549050919050565b6060600180546108969061271f565b80601f01602080910402602001604051908101604052809291908181526020018280546108c29061271f565b801561090f5780601f106108e45761010080835404028352916020019161090f565b820191906000526020600020905b8154815290600101906020018083116108f257829003601f168201915b5050505050905090565b61092b610924610b1b565b8383610fa7565b5050565b61094061093a610b1b565b83610bdc565b61097f576040517f08c379a0000000000000000000000000000000000000000000000000000000008152600401610976906128e6565b60405180910390fd5b61098b84848484611113565b50505050565b606061099c8261116f565b9050919050565b6000600560008473ffffffffffffffffffffffffffffffffffffffff1673ffffffffffffffffffffffffffffffffffffffff16815260200190815260200160002060008373ffffffffffffffffffffffffffffffffffffffff1673ffffffffffffffffffffffffffffffffffffffff16815260200190815260200160002060009054906101000a900460ff16905092915050565b6000610a43600b611281565b6000610a4f600b611297565b9050610a5b84826112a5565b610a6581846114c2565b8091505092915050565b6000634906490660e01b7bffffffffffffffffffffffffffffffffffffffffffffffffffffffff1916827bffffffffffffffffffffffffffffffffffffffffffffffffffffffff19161480610ac95750610ac882611566565b5b9050919050565b610ad9816115e0565b610b18576040517f08c379a0000000000000000000000000000000000000000000000000000000008152600401610b0f90612aa5565b60405180910390fd5b50565b600033905090565b816004600083815260200190815260200160002060006101000a81548173ffffffffffffffffffffffffffffffffffffffff021916908373ffffffffffffffffffffffffffffffffffffffff160217905550808273ffffffffffffffffffffffffffffffffffffffff16610b968361074a565b73ffffffffffffffffffffffffffffffffffffffff167f8c5be1e5ebec7d5bd14f71427d1e84f3dd0314c0f7b2291e5b200ac8c7c3b92560405160405180910390a45050565b600080610be88361074a565b90508073ffffffffffffffffffffffffffffffffffffffff168473ffffffffffffffffffffffffffffffffffffffff161480610c2a5750610c2981856109a3565b5b80610c6857508373ffffffffffffffffffffffffffffffffffffffff16610c508461044a565b73ffffffffffffffffffffffffffffffffffffffff16145b91505092915050565b8273ffffffffffffffffffffffffffffffffffffffff16610c918261074a565b73ffffffffffffffffffffffffffffffffffffffff1614610ce7576040517f08c379a0000000000000000000000000000000000000000000000000000000008152600401610cde90612bc9565b60405180910390fd5b600073ffffffffffffffffffffffffffffffffffffffff168273ffffffffffffffffffffffffffffffffffffffff1603610d56576040517f08c379a0000000000000000000000000000000000000000000000000000000008152600401610d4d90612c5b565b60405180910390fd5b610d638383836001611621565b8273ffffffffffffffffffffffffffffffffffffffff16610d838261074a565b73ffffffffffffffffffffffffffffffffffffffff1614610dd9576040517f08c379a0000000000000000000000000000000000000000000000000000000008152600401610dd090612bc9565b60405180910390fd5b6004600082815260200190815260200160002060006101000a81549073ffffffffffffffffffffffffffffffffffffffff02191690556001600360008573ffffffffffffffffffffffffffffffffffffffff1673ffffffffffffffffffffffffffffffffffffffff168152602001908152602001600020600082825403925050819055506001600360008473ffffffffffffffffffffffffffffffffffffffff1673ffffffffffffffffffffffffffffffffffffffff16815260200190815260200160002060008282540192505081905550816002600083815260200190815260200160002060006101000a81548173ffffffffffffffffffffffffffffffffffffffff021916908373ffffffffffffffffffffffffffffffffffffffff160217905550808273ffffffffffffffffffffffffffffffffffffffff168473ffffffffffffffffffffffffffffffffffffffff167fddf252ad1be2c89b69c2b068fc378daa952ba7f163c4a11628f55a4df523b3ef60405160405180910390a4610f658383836001611633565b505050565b60006002600083815260200190815260200160002060009054906101000a900473ffffffffffffffffffffffffffffffffffffffff169050919050565b8173ffffffffffffffffffffffffffffffffffffffff168373ffffffffffffffffffffffffffffffffffffffff1603611015576040517f08c379a000000000000000000000000000000000000000000000000000000000815260040161100c90612cc7565b60405180910390fd5b80600560008573ffffffffffffffffffffffffffffffffffffffff1673ffffffffffffffffffffffffffffffffffffffff16815260200190815260200160002060008473ffffffffffffffffffffffffffffffffffffffff1673ffffffffffffffffffffffffffffffffffffffff16815260200190815260200160002060006101000a81548160ff0219169083151502179055508173ffffffffffffffffffffffffffffffffffffffff168373ffffffffffffffffffffffffffffffffffffffff167f17307eab39ab6107e8899845ad3d59bd9653f200f220920489ca2b5937696c318360405161110691906120ed565b60405180910390a3505050565b61111e848484610c71565b61112a84848484611639565b611169576040517f08c379a000000000000000000000000000000000000000000000000000000000815260040161116090612d59565b60405180910390fd5b50505050565b606061117a82610ad0565b6000600a6000848152602001908152602001600020805461119a9061271f565b80601f01602080910402602001604051908101604052809291908181526020018280546111c69061271f565b80156112135780601f106111e857610100808354040283529160200191611213565b820191906000526020600020905b8154815290600101906020018083116111f657829003601f168201915b5050505050905060006112246117c0565b9050600081510361123957819250505061127c565b60008251111561126e578082604051602001611256929190612db5565b6040516020818303038152906040529250505061127c565b611277846117d7565b925050505b919050565b6001816000016000828254019250508190555050565b600081600001549050919050565b600073ffffffffffffffffffffffffffffffffffffffff168273ffffffffffffffffffffffffffffffffffffffff1603611314576040517f08c379a000000000000000000000000000000000000000000000000000000000815260040161130b90612e25565b60405180910390fd5b61131d816115e0565b1561135d576040517f08c379a000000000000000000000000000000000000000000000000000000000815260040161135490612e91565b60405180910390fd5b61136b600083836001611621565b611374816115e0565b156113b4576040517f08c379a00000000000000000000000000000000000000000000000000000000081526004016113ab90612e91565b60405180910390fd5b6001600360008473ffffffffffffffffffffffffffffffffffffffff1673ffffffffffffffffffffffffffffffffffffffff16815260200190815260200160002060008282540192505081905550816002600083815260200190815260200160002060006101000a81548173ffffffffffffffffffffffffffffffffffffffff021916908373ffffffffffffffffffffffffffffffffffffffff160217905550808273ffffffffffffffffffffffffffffffffffffffff16600073ffffffffffffffffffffffffffffffffffffffff167fddf252ad1be2c89b69c2b068fc378daa952ba7f163c4a11628f55a4df523b3ef60405160405180910390a46114be600083836001611633565b5050565b6114cb826115e0565b61150a576040517f08c379a000000000000000000000000000000000000000000000000000000000815260040161150190612f23565b60405180910390fd5b80600a6000848152602001908152602001600020908161152a91906130ef565b507ff8e1a15aba9398e019f0b49df1a4fde98ee17ae345cb5f6b5e2c27f5033e8ce78260405161155a91906122f4565b60405180910390a15050565b60007f780e9d63000000000000000000000000000000000000000000000000000000007bffffffffffffffffffffffffffffffffffffffffffffffffffffffff1916827bffffffffffffffffffffffffffffffffffffffffffffffffffffffff191614806115d957506115d88261183f565b5b9050919050565b60008073ffffffffffffffffffffffffffffffffffffffff1661160283610f6a565b73ffffffffffffffffffffffffffffffffffffffff1614159050919050565b61162d84848484611921565b50505050565b50505050565b600061165a8473ffffffffffffffffffffffffffffffffffffffff16611a7f565b156117b3578373ffffffffffffffffffffffffffffffffffffffff1663150b7a02611683610b1b565b8786866040518563ffffffff1660e01b81526004016116a59493929190613216565b6020604051808303816000875af19250505080156116e157506040513d601f19601f820116820180604052508101906116de9190613277565b60015b611763573d8060008114611711576040519150601f19603f3d011682016040523d82523d6000602084013e611716565b606091505b50600081510361175b576040517f08c379a000000000000000000000000000000000000000000000000000000000815260040161175290612d59565b60405180910390fd5b805181602001fd5b63150b7a0260e01b7bffffffffffffffffffffffffffffffffffffffffffffffffffffffff1916817bffffffffffffffffffffffffffffffffffffffffffffffffffffffff1916149150506117b8565b600190505b949350505050565b606060405180602001604052806000815250905090565b60606117e282610ad0565b60006117ec6117c0565b9050600081511161180c5760405180602001604052806000815250611837565b8061181684611aa2565b604051602001611827929190612db5565b6040516020818303038152906040525b915050919050565b60007f80ac58cd000000000000000000000000000000000000000000000000000000007bffffffffffffffffffffffffffffffffffffffffffffffffffffffff1916827bffffffffffffffffffffffffffffffffffffffffffffffffffffffff1916148061190a57507f5b5e139f000000000000000000000000000000000000000000000000000000007bffffffffffffffffffffffffffffffffffffffffffffffffffffffff1916827bffffffffffffffffffffffffffffffffffffffffffffffffffffffff1916145b8061191a575061191982611b70565b5b9050919050565b61192d84848484611bda565b6001811115611971576040517f08c379a000000000000000000000000000000000000000000000000000000000815260040161196890613316565b60405180910390fd5b6000829050600073ffffffffffffffffffffffffffffffffffffffff168573ffffffffffffffffffffffffffffffffffffffff16036119b8576119b381611be0565b6119f7565b8373ffffffffffffffffffffffffffffffffffffffff168573ffffffffffffffffffffffffffffffffffffffff16146119f6576119f58582611c29565b5b5b600073ffffffffffffffffffffffffffffffffffffffff168473ffffffffffffffffffffffffffffffffffffffff1603611a3957611a3481611d96565b611a78565b8473ffffffffffffffffffffffffffffffffffffffff168473ffffffffffffffffffffffffffffffffffffffff1614611a7757611a768482611e67565b5b5b5050505050565b6000808273ffffffffffffffffffffffffffffffffffffffff163b119050919050565b606060006001611ab184611ee6565b01905060008167ffffffffffffffff811115611ad057611acf612405565b5b6040519080825280601f01601f191660200182016040528015611b025781602001600182028036833780820191505090505b509050600082602001820190505b600115611b65578080600190039150507f3031323334353637383961626364656600000000000000000000000000000000600a86061a8153600a8581611b5957611b58613336565b5b04945060008503611b10575b819350505050919050565b60007f01ffc9a7000000000000000000000000000000000000000000000000000000007bffffffffffffffffffffffffffffffffffffffffffffffffffffffff1916827bffffffffffffffffffffffffffffffffffffffffffffffffffffffff1916149050919050565b50505050565b6008805490506009600083815260200190815260200160002081905550600881908060018154018082558091505060019003906000526020600020016000909190919091505550565b60006001611c36846107d0565b611c409190613394565b9050600060076000848152602001908152602001600020549050818114611d25576000600660008673ffffffffffffffffffffffffffffffffffffffff1673ffffffffffffffffffffffffffffffffffffffff168152602001908152602001600020600084815260200190815260200160002054905080600660008773ffffffffffffffffffffffffffffffffffffffff1673ffffffffffffffffffffffffffffffffffffffff168152602001908152602001600020600084815260200190815260200160002081905550816007600083815260200190815260200160002081905550505b6007600084815260200190815260200160002060009055600660008573ffffffffffffffffffffffffffffffffffffffff1673ffffffffffffffffffffffffffffffffffffffff16815260200190815260200160002060008381526020019081526020016000206000905550505050565b60006001600880549050611daa9190613394565b9050600060096000848152602001908152602001600020549050600060088381548110611dda57611dd9612a2a565b5b906000526020600020015490508060088381548110611dfc57611dfb612a2a565b5b906000526020600020018190555081600960008381526020019081526020016000208190555060096000858152602001908152602001600020600090556008805480611e4b57611e4a6133c8565b5b6001900381819060005260206000200160009055905550505050565b6000611e72836107d0565b905081600660008573ffffffffffffffffffffffffffffffffffffffff1673ffffffffffffffffffffffffffffffffffffffff168152602001908152602001600020600083815260200190815260200160002081905550806007600084815260200190815260200160002081905550505050565b600080600090507a184f03e93ff9f4daa797ed6e38ed64bf6a1f0100000000000000008310611f44577a184f03e93ff9f4daa797ed6e38ed64bf6a1f0100000000000000008381611f3a57611f39613336565b5b0492506040810190505b6d04ee2d6d415b85acef81000000008310611f81576d04ee2d6d415b85acef81000000008381611f7757611f76613336565b5b0492506020810190505b662386f26fc100008310611fb057662386f26fc100008381611fa657611fa5613336565b5b0492506010810190505b6305f5e1008310611fd9576305f5e1008381611fcf57611fce613336565b5b0492506008810190505b6127108310611ffe576127108381611ff457611ff3613336565b5b0492506004810190505b60648310612021576064838161201757612016613336565b5b0492506002810190505b600a8310612030576001810190505b80915050919050565b6000604051905090565b600080fd5b600080fd5b60007fffffffff0000000000000000000000000000000000000000000000000000000082169050919050565b6120828161204d565b811461208d57600080fd5b50565b60008135905061209f81612079565b92915050565b6000602082840312156120bb576120ba612043565b5b60006120c984828501612090565b91505092915050565b60008115159050919050565b6120e7816120d2565b82525050565b600060208201905061210260008301846120de565b92915050565b600081519050919050565b600082825260208201905092915050565b60005b83811015612142578082015181840152602081019050612127565b60008484015250505050565b6000601f19601f8301169050919050565b600061216a82612108565b6121748185612113565b9350612184818560208601612124565b61218d8161214e565b840191505092915050565b600060208201905081810360008301526121b2818461215f565b905092915050565b6000819050919050565b6121cd816121ba565b81146121d857600080fd5b50565b6000813590506121ea816121c4565b92915050565b60006020828403121561220657612205612043565b5b6000612214848285016121db565b91505092915050565b600073ffffffffffffffffffffffffffffffffffffffff82169050919050565b60006122488261221d565b9050919050565b6122588161223d565b82525050565b6000602082019050612273600083018461224f565b92915050565b6122828161223d565b811461228d57600080fd5b50565b60008135905061229f81612279565b92915050565b600080604083850312156122bc576122bb612043565b5b60006122ca85828601612290565b92505060206122db858286016121db565b9150509250929050565b6122ee816121ba565b82525050565b600060208201905061230960008301846122e5565b92915050565b60008060006060848603121561232857612327612043565b5b600061233686828701612290565b935050602061234786828701612290565b9250506040612358868287016121db565b9150509250925092565b60006020828403121561237857612377612043565b5b600061238684828501612290565b91505092915050565b612398816120d2565b81146123a357600080fd5b50565b6000813590506123b58161238f565b92915050565b600080604083850312156123d2576123d1612043565b5b60006123e085828601612290565b92505060206123f1858286016123a6565b9150509250929050565b600080fd5b600080fd5b7f4e487b7100000000000000000000000000000000000000000000000000000000600052604160045260246000fd5b61243d8261214e565b810181811067ffffffffffffffff8211171561245c5761245b612405565b5b80604052505050565b600061246f612039565b905061247b8282612434565b919050565b600067ffffffffffffffff82111561249b5761249a612405565b5b6124a48261214e565b9050602081019050919050565b82818337600083830152505050565b60006124d36124ce84612480565b612465565b9050828152602081018484840111156124ef576124ee612400565b5b6124fa8482856124b1565b509392505050565b600082601f830112612517576125166123fb565b5b81356125278482602086016124c0565b91505092915050565b6000806000806080858703121561254a57612549612043565b5b600061255887828801612290565b945050602061256987828801612290565b935050604061257a878288016121db565b925050606085013567ffffffffffffffff81111561259b5761259a612048565b5b6125a787828801612502565b91505092959194509250565b600080604083850312156125ca576125c9612043565b5b60006125d885828601612290565b92505060206125e985828601612290565b9150509250929050565b600067ffffffffffffffff82111561260e5761260d612405565b5b6126178261214e565b9050602081019050919050565b6000612637612632846125f3565b612465565b90508281526020810184848401111561265357612652612400565b5b61265e8482856124b1565b509392505050565b600082601f83011261267b5761267a6123fb565b5b813561268b848260208601612624565b91505092915050565b600080604083850312156126ab576126aa612043565b5b60006126b985828601612290565b925050602083013567ffffffffffffffff8111156126da576126d9612048565b5b6126e685828601612666565b9150509250929050565b7f4e487b7100000000000000000000000000000000000000000000000000000000600052602260045260246000fd5b6000600282049050600182168061273757607f821691505b60208210810361274a576127496126f0565b5b50919050565b7f4552433732313a20617070726f76616c20746f2063757272656e74206f776e6560008201527f7200000000000000000000000000000000000000000000000000000000000000602082015250565b60006127ac602183612113565b91506127b782612750565b604082019050919050565b600060208201905081810360008301526127db8161279f565b9050919050565b7f4552433732313a20617070726f76652063616c6c6572206973206e6f7420746f60008201527f6b656e206f776e6572206f7220617070726f76656420666f7220616c6c000000602082015250565b600061283e603d83612113565b9150612849826127e2565b604082019050919050565b6000602082019050818103600083015261286d81612831565b9050919050565b7f4552433732313a2063616c6c6572206973206e6f7420746f6b656e206f776e6560008201527f72206f7220617070726f76656400000000000000000000000000000000000000602082015250565b60006128d0602d83612113565b91506128db82612874565b604082019050919050565b600060208201905081810360008301526128ff816128c3565b9050919050565b7f455243373231456e756d657261626c653a206f776e657220696e646578206f7560008201527f74206f6620626f756e6473000000000000000000000000000000000000000000602082015250565b6000612962602b83612113565b915061296d82612906565b604082019050919050565b6000602082019050818103600083015261299181612955565b9050919050565b7f455243373231456e756d657261626c653a20676c6f62616c20696e646578206f60008201527f7574206f6620626f756e64730000000000000000000000000000000000000000602082015250565b60006129f4602c83612113565b91506129ff82612998565b604082019050919050565b60006020820190508181036000830152612a23816129e7565b9050919050565b7f4e487b7100000000000000000000000000000000000000000000000000000000600052603260045260246000fd5b7f4552433732313a20696e76616c696420746f6b656e2049440000000000000000600082015250565b6000612a8f601883612113565b9150612a9a82612a59565b602082019050919050565b60006020820190508181036000830152612abe81612a82565b9050919050565b7f4552433732313a2061646472657373207a65726f206973206e6f74206120766160008201527f6c6964206f776e65720000000000000000000000000000000000000000000000602082015250565b6000612b21602983612113565b9150612b2c82612ac5565b604082019050919050565b60006020820190508181036000830152612b5081612b14565b9050919050565b7f4552433732313a207472616e736665722066726f6d20696e636f72726563742060008201527f6f776e6572000000000000000000000000000000000000000000000000000000602082015250565b6000612bb3602583612113565b9150612bbe82612b57565b604082019050919050565b60006020820190508181036000830152612be281612ba6565b9050919050565b7f4552433732313a207472616e7366657220746f20746865207a65726f2061646460008201527f7265737300000000000000000000000000000000000000000000000000000000602082015250565b6000612c45602483612113565b9150612c5082612be9565b604082019050919050565b60006020820190508181036000830152612c7481612c38565b9050919050565b7f4552433732313a20617070726f766520746f2063616c6c657200000000000000600082015250565b6000612cb1601983612113565b9150612cbc82612c7b565b602082019050919050565b60006020820190508181036000830152612ce081612ca4565b9050919050565b7f4552433732313a207472616e7366657220746f206e6f6e20455243373231526560008201527f63656976657220696d706c656d656e7465720000000000000000000000000000602082015250565b6000612d43603283612113565b9150612d4e82612ce7565b604082019050919050565b60006020820190508181036000830152612d7281612d36565b9050919050565b600081905092915050565b6000612d8f82612108565b612d998185612d79565b9350612da9818560208601612124565b80840191505092915050565b6000612dc18285612d84565b9150612dcd8284612d84565b91508190509392505050565b7f4552433732313a206d696e7420746f20746865207a65726f2061646472657373600082015250565b6000612e0f602083612113565b9150612e1a82612dd9565b602082019050919050565b60006020820190508181036000830152612e3e81612e02565b9050919050565b7f4552433732313a20746f6b656e20616c7265616479206d696e74656400000000600082015250565b6000612e7b601c83612113565b9150612e8682612e45565b602082019050919050565b60006020820190508181036000830152612eaa81612e6e565b9050919050565b7f45524337323155524953746f726167653a2055524920736574206f66206e6f6e60008201527f6578697374656e7420746f6b656e000000000000000000000000000000000000602082015250565b6000612f0d602e83612113565b9150612f1882612eb1565b604082019050919050565b60006020820190508181036000830152612f3c81612f00565b9050919050565b60008190508160005260206000209050919050565b60006020601f8301049050919050565b600082821b905092915050565b600060088302612fa57fffffffffffffffffffffffffffffffffffffffffffffffffffffffffffffffff82612f68565b612faf8683612f68565b95508019841693508086168417925050509392505050565b6000819050919050565b6000612fec612fe7612fe2846121ba565b612fc7565b6121ba565b9050919050565b6000819050919050565b61300683612fd1565b61301a61301282612ff3565b848454612f75565b825550505050565b600090565b61302f613022565b61303a818484612ffd565b505050565b5b8181101561305e57613053600082613027565b600181019050613040565b5050565b601f8211156130a35761307481612f43565b61307d84612f58565b8101602085101561308c578190505b6130a061309885612f58565b83018261303f565b50505b505050565b600082821c905092915050565b60006130c6600019846008026130a8565b1980831691505092915050565b60006130df83836130b5565b9150826002028217905092915050565b6130f882612108565b67ffffffffffffffff81111561311157613110612405565b5b61311b825461271f565b613126828285613062565b600060209050601f8311600181146131595760008415613147578287015190505b61315185826130d3565b8655506131b9565b601f19841661316786612f43565b60005b8281101561318f5784890151825560018201915060208501945060208101905061316a565b868310156131ac57848901516131a8601f8916826130b5565b8355505b6001600288020188555050505b505050505050565b600081519050919050565b600082825260208201905092915050565b60006131e8826131c1565b6131f281856131cc565b9350613202818560208601612124565b61320b8161214e565b840191505092915050565b600060808201905061322b600083018761224f565b613238602083018661224f565b61324560408301856122e5565b818103606083015261325781846131dd565b905095945050505050565b60008151905061327181612079565b92915050565b60006020828403121561328d5761328c612043565b5b600061329b84828501613262565b91505092915050565b7f455243373231456e756d657261626c653a20636f6e736563757469766520747260008201527f616e7366657273206e6f7420737570706f727465640000000000000000000000602082015250565b6000613300603583612113565b915061330b826132a4565b604082019050919050565b6000602082019050818103600083015261332f816132f3565b9050919050565b7f4e487b7100000000000000000000000000000000000000000000000000000000600052601260045260246000fd5b7f4e487b7100000000000000000000000000000000000000000000000000000000600052601160045260246000fd5b600061339f826121ba565b91506133aa836121ba565b92508282039050818111156133c2576133c1613365565b5b92915050565b7f4e487b7100000000000000000000000000000000000000000000000000000000600052603160045260246000fdfea2646970667358221220abd1236e3af4e543b081e4f7c4dcef09e33e72c9a0ff05ed23d0f8d663ab23fc64736f6c63430008120033",
  "linkReferences": {},
  "deployedLinkReferences": {}
}