{
  "_format": "hh-sol-artifact-1",
  "contractName": "AtomyNFTs",
  "sourceName": "contracts/AtomyNFTs.sol",
  "abi": [
    {
      "inputs": [],
      "stateMutability": "nonpayable",
      "type": "constructor"
    },
    {
      "anonymous": false,
      "inputs": [
        {
          "indexed": true,
          "internalType": "address",
          "name": "owner",
          "type": "address"
        },
        {
          "indexed": true,
          "internalType": "address",
          "name": "approved",
          "type": "address"
        },
        {
          "indexed": true,
          "internalType": "uint256",
          "name": "tokenId",
          "type": "uint256"
        }
      ],
      "name": "Approval",
      "type": "event"
    },
    {
      "anonymous": false,
      "inputs": [
        {
          "indexed": true,
          "internalType": "address",
          "name": "owner",
          "type": "address"
        },
        {
          "indexed": true,
          "internalType": "address",
          "name": "operator",
          "type": "address"
        },
        {
          "indexed": false,
          "internalType": "bool",
          "name": "approved",
          "type": "bool"
        }
      ],
      "name": "ApprovalForAll",
      "type": "event"
    },
    {
      "anonymous": false,
      "inputs": [
        {
          "indexed": false,
          "internalType": "uint256",
          "name": "_fromTokenId",
          "type": "uint256"
        },
        {
          "indexed": false,
          "internalType": "uint256",
          "name": "_toTokenId",
          "type": "uint256"
        }
      ],
      "name": "BatchMetadataUpdate",
      "type": "event"
    },
    {
      "anonymous": false,
      "inputs": [
        {
          "indexed": false,
          "internalType": "uint256",
          "name": "_tokenId",
          "type": "uint256"
        }
      ],
      "name": "MetadataUpdate",
      "type": "event"
    },
    {
      "anonymous": false,
      "inputs": [
        {
          "indexed": true,
          "internalType": "address",
          "name": "previousOwner",
          "type": "address"
        },
        {
          "indexed": true,
          "internalType": "address",
          "name": "newOwner",
          "type": "address"
        }
      ],
      "name": "OwnershipTransferred",
      "type": "event"
    },
    {
      "anonymous": false,
      "inputs": [
        {
          "indexed": true,
          "internalType": "address",
          "name": "from",
          "type": "address"
        },
        {
          "indexed": true,
          "internalType": "address",
          "name": "to",
          "type": "address"
        },
        {
          "indexed": true,
          "internalType": "uint256",
          "name": "tokenId",
          "type": "uint256"
        }
      ],
      "name": "Transfer",
      "type": "event"
    },
    {
      "inputs": [
        {
          "internalType": "address",
          "name": "to",
          "type": "address"
        },
        {
          "internalType": "uint256",
          "name": "tokenId",
          "type": "uint256"
        }
      ],
      "name": "approve",
      "outputs": [],
      "stateMutability": "nonpayable",
      "type": "function"
    },
    {
      "inputs": [
        {
          "internalType": "address",
          "name": "owner",
          "type": "address"
        }
      ],
      "name": "balanceOf",
      "outputs": [
        {
          "internalType": "uint256",
          "name": "",
          "type": "uint256"
        }
      ],
      "stateMutability": "view",
      "type": "function"
    },
    {
      "inputs": [
        {
          "internalType": "uint256",
          "name": "tokenId",
          "type": "uint256"
        }
      ],
      "name": "getApproved",
      "outputs": [
        {
          "internalType": "address",
          "name": "",
          "type": "address"
        }
      ],
      "stateMutability": "view",
      "type": "function"
    },
    {
      "inputs": [
        {
          "internalType": "address",
          "name": "owner",
          "type": "address"
        },
        {
          "internalType": "address",
          "name": "operator",
          "type": "address"
        }
      ],
      "name": "isApprovedForAll",
      "outputs": [
        {
          "internalType": "bool",
          "name": "",
          "type": "bool"
        }
      ],
      "stateMutability": "view",
      "type": "function"
    },
    {
      "inputs": [
        {
          "internalType": "address",
          "name": "receipient",
          "type": "address"
        },
        {
          "internalType": "string",
          "name": "URI",
          "type": "string"
        }
      ],
      "name": "mintNFT",
      "outputs": [
        {
          "internalType": "uint256",
          "name": "",
          "type": "uint256"
        }
      ],
      "stateMutability": "nonpayable",
      "type": "function"
    },
    {
      "inputs": [],
      "name": "name",
      "outputs": [
        {
          "internalType": "string",
          "name": "",
          "type": "string"
        }
      ],
      "stateMutability": "view",
      "type": "function"
    },
    {
      "inputs": [],
      "name": "owner",
      "outputs": [
        {
          "internalType": "address",
          "name": "",
          "type": "address"
        }
      ],
      "stateMutability": "view",
      "type": "function"
    },
    {
      "inputs": [
        {
          "internalType": "uint256",
          "name": "tokenId",
          "type": "uint256"
        }
      ],
      "name": "ownerOf",
      "outputs": [
        {
          "internalType": "address",
          "name": "",
          "type": "address"
        }
      ],
      "stateMutability": "view",
      "type": "function"
    },
    {
      "inputs": [],
      "name": "renounceOwnership",
      "outputs": [],
      "stateMutability": "nonpayable",
      "type": "function"
    },
    {
      "inputs": [
        {
          "internalType": "address",
          "name": "from",
          "type": "address"
        },
        {
          "internalType": "address",
          "name": "to",
          "type": "address"
        },
        {
          "internalType": "uint256",
          "name": "tokenId",
          "type": "uint256"
        }
      ],
      "name": "safeTransferFrom",
      "outputs": [],
      "stateMutability": "nonpayable",
      "type": "function"
    },
    {
      "inputs": [
        {
          "internalType": "address",
          "name": "from",
          "type": "address"
        },
        {
          "internalType": "address",
          "name": "to",
          "type": "address"
        },
        {
          "internalType": "uint256",
          "name": "tokenId",
          "type": "uint256"
        },
        {
          "internalType": "bytes",
          "name": "data",
          "type": "bytes"
        }
      ],
      "name": "safeTransferFrom",
      "outputs": [],
      "stateMutability": "nonpayable",
      "type": "function"
    },
    {
      "inputs": [
        {
          "internalType": "address",
          "name": "operator",
          "type": "address"
        },
        {
          "internalType": "bool",
          "name": "approved",
          "type": "bool"
        }
      ],
      "name": "setApprovalForAll",
      "outputs": [],
      "stateMutability": "nonpayable",
      "type": "function"
    },
    {
      "inputs": [
        {
          "internalType": "bytes4",
          "name": "interfaceId",
          "type": "bytes4"
        }
      ],
      "name": "supportsInterface",
      "outputs": [
        {
          "internalType": "bool",
          "name": "",
          "type": "bool"
        }
      ],
      "stateMutability": "view",
      "type": "function"
    },
    {
      "inputs": [],
      "name": "symbol",
      "outputs": [
        {
          "internalType": "string",
          "name": "",
          "type": "string"
        }
      ],
      "stateMutability": "view",
      "type": "function"
    },
    {
      "inputs": [
        {
          "internalType": "uint256",
          "name": "index",
          "type": "uint256"
        }
      ],
      "name": "tokenByIndex",
      "outputs": [
        {
          "internalType": "uint256",
          "name": "",
          "type": "uint256"
        }
      ],
      "stateMutability": "view",
      "type": "function"
    },
    {
      "inputs": [
        {
          "internalType": "address",
          "name": "owner",
          "type": "address"
        },
        {
          "internalType": "uint256",
          "name": "index",
          "type": "uint256"
        }
      ],
      "name": "tokenOfOwnerByIndex",
      "outputs": [
        {
          "internalType": "uint256",
          "name": "",
          "type": "uint256"
        }
      ],
      "stateMutability": "view",
      "type": "function"
    },
    {
      "inputs": [
        {
          "internalType": "uint256",
          "name": "tokenId",
          "type": "uint256"
        }
      ],
      "name": "tokenURI",
      "outputs": [
        {
          "internalType": "string",
          "name": "",
          "type": "string"
        }
      ],
      "stateMutability": "view",
      "type": "function"
    },
    {
      "inputs": [],
      "name": "totalSupply",
      "outputs": [
        {
          "internalType": "uint256",
          "name": "",
          "type": "uint256"
        }
      ],
      "stateMutability": "view",
      "type": "function"
    },
    {
      "inputs": [
        {
          "internalType": "address",
          "name": "from",
          "type": "address"
        },
        {
          "internalType": "address",
          "name": "to",
          "type": "address"
        },
        {
          "internalType": "uint256",
          "name": "tokenId",
          "type": "uint256"
        }
      ],
      "name": "transferFrom",
      "outputs": [],
      "stateMutability": "nonpayable",
      "type": "function"
    },
    {
      "inputs": [
        {
          "internalType": "address",
          "name": "newOwner",
          "type": "address"
        }
      ],
      "name": "transferOwnership",
      "outputs": [],
      "stateMutability": "nonpayable",
      "type": "function"
    }
  ],
  "bytecode": "0x60806040523480156200001157600080fd5b506040518060400160405280600981526020017f41746f6d794e46547300000000000000000000000000000000000000000000008152506040518060400160405280600481526020017f414e46540000000000000000000000000000000000000000000000000000000081525081600090816200008f919062000412565b508060019081620000a1919062000412565b505050620000c4620000b8620000ca60201b60201c565b620000d260201b60201c565b620004f9565b600033905090565b6000600b60009054906101000a900473ffffffffffffffffffffffffffffffffffffffff16905081600b60006101000a81548173ffffffffffffffffffffffffffffffffffffffff021916908373ffffffffffffffffffffffffffffffffffffffff1602179055508173ffffffffffffffffffffffffffffffffffffffff168173ffffffffffffffffffffffffffffffffffffffff167f8be0079c531659141344cd1fd0a4f28419497f9722a3daafe3b4186f6b6457e060405160405180910390a35050565b600081519050919050565b7f4e487b7100000000000000000000000000000000000000000000000000000000600052604160045260246000fd5b7f4e487b7100000000000000000000000000000000000000000000000000000000600052602260045260246000fd5b600060028204905060018216806200021a57607f821691505b60208210810362000230576200022f620001d2565b5b50919050565b60008190508160005260206000209050919050565b60006020601f8301049050919050565b600082821b905092915050565b6000600883026200029a7fffffffffffffffffffffffffffffffffffffffffffffffffffffffffffffffff826200025b565b620002a686836200025b565b95508019841693508086168417925050509392505050565b6000819050919050565b6000819050919050565b6000620002f3620002ed620002e784620002be565b620002c8565b620002be565b9050919050565b6000819050919050565b6200030f83620002d2565b620003276200031e82620002fa565b84845462000268565b825550505050565b600090565b6200033e6200032f565b6200034b81848462000304565b505050565b5b8181101562000373576200036760008262000334565b60018101905062000351565b5050565b601f821115620003c2576200038c8162000236565b62000397846200024b565b81016020851015620003a7578190505b620003bf620003b6856200024b565b83018262000350565b50505b505050565b600082821c905092915050565b6000620003e760001984600802620003c7565b1980831691505092915050565b6000620004028383620003d4565b9150826002028217905092915050565b6200041d8262000198565b67ffffffffffffffff811115620004395762000438620001a3565b5b62000445825462000201565b6200045282828562000377565b600060209050601f8311600181146200048a576000841562000475578287015190505b620004818582620003f4565b865550620004f1565b601f1984166200049a8662000236565b60005b82811015620004c4578489015182556001820191506020850194506020810190506200049d565b86831015620004e45784890151620004e0601f891682620003d4565b8355505b6001600288020188555050505b505050505050565b61379d80620005096000396000f3fe608060405234801561001057600080fd5b506004361061012c5760003560e01c806370a08231116100ad578063b88d4fde11610071578063b88d4fde14610343578063c87b56dd1461035f578063e985e9c51461038f578063eacabe14146103bf578063f2fde38b146103ef5761012c565b806370a08231146102b1578063715018a6146102e15780638da5cb5b146102eb57806395d89b4114610309578063a22cb465146103275761012c565b806323b872dd116100f457806323b872dd146101e95780632f745c591461020557806342842e0e146102355780634f6ccce7146102515780636352211e146102815761012c565b806301ffc9a71461013157806306fdde0314610161578063081812fc1461017f578063095ea7b3146101af57806318160ddd146101cb575b600080fd5b61014b60048036038101906101469190612317565b61040b565b604051610158919061235f565b60405180910390f35b61016961041d565b604051610176919061240a565b60405180910390f35b61019960048036038101906101949190612462565b6104af565b6040516101a691906124d0565b60405180910390f35b6101c960048036038101906101c49190612517565b6104f5565b005b6101d361060c565b6040516101e09190612566565b60405180910390f35b61020360048036038101906101fe9190612581565b610619565b005b61021f600480360381019061021a9190612517565b610679565b60405161022c9190612566565b60405180910390f35b61024f600480360381019061024a9190612581565b61071e565b005b61026b60048036038101906102669190612462565b61073e565b6040516102789190612566565b60405180910390f35b61029b60048036038101906102969190612462565b6107af565b6040516102a891906124d0565b60405180910390f35b6102cb60048036038101906102c691906125d4565b610835565b6040516102d89190612566565b60405180910390f35b6102e96108ec565b005b6102f3610900565b60405161030091906124d0565b60405180910390f35b61031161092a565b60405161031e919061240a565b60405180910390f35b610341600480360381019061033c919061262d565b6109bc565b005b61035d600480360381019061035891906127a2565b6109d2565b005b61037960048036038101906103749190612462565b610a34565b604051610386919061240a565b60405180910390f35b6103a960048036038101906103a49190612825565b610a46565b6040516103b6919061235f565b60405180910390f35b6103d960048036038101906103d49190612906565b610ada565b6040516103e69190612566565b60405180910390f35b610409600480360381019061040491906125d4565b610b1a565b005b600061041682610b9d565b9050919050565b60606000805461042c90612991565b80601f016020809104026020016040519081016040528092919081815260200182805461045890612991565b80156104a55780601f1061047a576101008083540402835291602001916104a5565b820191906000526020600020905b81548152906001019060200180831161048857829003601f168201915b5050505050905090565b60006104ba82610bfe565b6004600083815260200190815260200160002060009054906101000a900473ffffffffffffffffffffffffffffffffffffffff169050919050565b6000610500826107af565b90508073ffffffffffffffffffffffffffffffffffffffff168373ffffffffffffffffffffffffffffffffffffffff1603610570576040517f08c379a000000000000000000000000000000000000000000000000000000000815260040161056790612a34565b60405180910390fd5b8073ffffffffffffffffffffffffffffffffffffffff1661058f610c49565b73ffffffffffffffffffffffffffffffffffffffff1614806105be57506105bd816105b8610c49565b610a46565b5b6105fd576040517f08c379a00000000000000000000000000000000000000000000000000000000081526004016105f490612ac6565b60405180910390fd5b6106078383610c51565b505050565b6000600880549050905090565b61062a610624610c49565b82610d0a565b610669576040517f08c379a000000000000000000000000000000000000000000000000000000000815260040161066090612b58565b60405180910390fd5b610674838383610d9f565b505050565b600061068483610835565b82106106c5576040517f08c379a00000000000000000000000000000000000000000000000000000000081526004016106bc90612bea565b60405180910390fd5b600660008473ffffffffffffffffffffffffffffffffffffffff1673ffffffffffffffffffffffffffffffffffffffff168152602001908152602001600020600083815260200190815260200160002054905092915050565b610739838383604051806020016040528060008152506109d2565b505050565b600061074861060c565b8210610789576040517f08c379a000000000000000000000000000000000000000000000000000000000815260040161078090612c7c565b60405180910390fd5b6008828154811061079d5761079c612c9c565b5b90600052602060002001549050919050565b6000806107bb83611098565b9050600073ffffffffffffffffffffffffffffffffffffffff168173ffffffffffffffffffffffffffffffffffffffff160361082c576040517f08c379a000000000000000000000000000000000000000000000000000000000815260040161082390612d17565b60405180910390fd5b80915050919050565b60008073ffffffffffffffffffffffffffffffffffffffff168273ffffffffffffffffffffffffffffffffffffffff16036108a5576040517f08c379a000000000000000000000000000000000000000000000000000000000815260040161089c90612da9565b60405180910390fd5b600360008373ffffffffffffffffffffffffffffffffffffffff1673ffffffffffffffffffffffffffffffffffffffff168152602001908152602001600020549050919050565b6108f46110d5565b6108fe6000611153565b565b6000600b60009054906101000a900473ffffffffffffffffffffffffffffffffffffffff16905090565b60606001805461093990612991565b80601f016020809104026020016040519081016040528092919081815260200182805461096590612991565b80156109b25780601f10610987576101008083540402835291602001916109b2565b820191906000526020600020905b81548152906001019060200180831161099557829003601f168201915b5050505050905090565b6109ce6109c7610c49565b8383611219565b5050565b6109e36109dd610c49565b83610d0a565b610a22576040517f08c379a0000000000000000000000000000000000000000000000000000000008152600401610a1990612b58565b60405180910390fd5b610a2e84848484611385565b50505050565b6060610a3f826113e1565b9050919050565b6000600560008473ffffffffffffffffffffffffffffffffffffffff1673ffffffffffffffffffffffffffffffffffffffff16815260200190815260200160002060008373ffffffffffffffffffffffffffffffffffffffff1673ffffffffffffffffffffffffffffffffffffffff16815260200190815260200160002060009054906101000a900460ff16905092915050565b6000610ae46110d5565b610aee600c6114f3565b6000610afa600c611509565b9050610b068482611517565b610b108184611734565b8091505092915050565b610b226110d5565b600073ffffffffffffffffffffffffffffffffffffffff168173ffffffffffffffffffffffffffffffffffffffff1603610b91576040517f08c379a0000000000000000000000000000000000000000000000000000000008152600401610b8890612e3b565b60405180910390fd5b610b9a81611153565b50565b6000634906490660e01b7bffffffffffffffffffffffffffffffffffffffffffffffffffffffff1916827bffffffffffffffffffffffffffffffffffffffffffffffffffffffff19161480610bf75750610bf6826117d8565b5b9050919050565b610c0781611852565b610c46576040517f08c379a0000000000000000000000000000000000000000000000000000000008152600401610c3d90612d17565b60405180910390fd5b50565b600033905090565b816004600083815260200190815260200160002060006101000a81548173ffffffffffffffffffffffffffffffffffffffff021916908373ffffffffffffffffffffffffffffffffffffffff160217905550808273ffffffffffffffffffffffffffffffffffffffff16610cc4836107af565b73ffffffffffffffffffffffffffffffffffffffff167f8c5be1e5ebec7d5bd14f71427d1e84f3dd0314c0f7b2291e5b200ac8c7c3b92560405160405180910390a45050565b600080610d16836107af565b90508073ffffffffffffffffffffffffffffffffffffffff168473ffffffffffffffffffffffffffffffffffffffff161480610d585750610d578185610a46565b5b80610d9657508373ffffffffffffffffffffffffffffffffffffffff16610d7e846104af565b73ffffffffffffffffffffffffffffffffffffffff16145b91505092915050565b8273ffffffffffffffffffffffffffffffffffffffff16610dbf826107af565b73ffffffffffffffffffffffffffffffffffffffff1614610e15576040517f08c379a0000000000000000000000000000000000000000000000000000000008152600401610e0c90612ecd565b60405180910390fd5b600073ffffffffffffffffffffffffffffffffffffffff168273ffffffffffffffffffffffffffffffffffffffff1603610e84576040517f08c379a0000000000000000000000000000000000000000000000000000000008152600401610e7b90612f5f565b60405180910390fd5b610e918383836001611893565b8273ffffffffffffffffffffffffffffffffffffffff16610eb1826107af565b73ffffffffffffffffffffffffffffffffffffffff1614610f07576040517f08c379a0000000000000000000000000000000000000000000000000000000008152600401610efe90612ecd565b60405180910390fd5b6004600082815260200190815260200160002060006101000a81549073ffffffffffffffffffffffffffffffffffffffff02191690556001600360008573ffffffffffffffffffffffffffffffffffffffff1673ffffffffffffffffffffffffffffffffffffffff168152602001908152602001600020600082825403925050819055506001600360008473ffffffffffffffffffffffffffffffffffffffff1673ffffffffffffffffffffffffffffffffffffffff16815260200190815260200160002060008282540192505081905550816002600083815260200190815260200160002060006101000a81548173ffffffffffffffffffffffffffffffffffffffff021916908373ffffffffffffffffffffffffffffffffffffffff160217905550808273ffffffffffffffffffffffffffffffffffffffff168473ffffffffffffffffffffffffffffffffffffffff167fddf252ad1be2c89b69c2b068fc378daa952ba7f163c4a11628f55a4df523b3ef60405160405180910390a461109383838360016118a5565b505050565b60006002600083815260200190815260200160002060009054906101000a900473ffffffffffffffffffffffffffffffffffffffff169050919050565b6110dd610c49565b73ffffffffffffffffffffffffffffffffffffffff166110fb610900565b73ffffffffffffffffffffffffffffffffffffffff1614611151576040517f08c379a000000000000000000000000000000000000000000000000000000000815260040161114890612fcb565b60405180910390fd5b565b6000600b60009054906101000a900473ffffffffffffffffffffffffffffffffffffffff16905081600b60006101000a81548173ffffffffffffffffffffffffffffffffffffffff021916908373ffffffffffffffffffffffffffffffffffffffff1602179055508173ffffffffffffffffffffffffffffffffffffffff168173ffffffffffffffffffffffffffffffffffffffff167f8be0079c531659141344cd1fd0a4f28419497f9722a3daafe3b4186f6b6457e060405160405180910390a35050565b8173ffffffffffffffffffffffffffffffffffffffff168373ffffffffffffffffffffffffffffffffffffffff1603611287576040517f08c379a000000000000000000000000000000000000000000000000000000000815260040161127e90613037565b60405180910390fd5b80600560008573ffffffffffffffffffffffffffffffffffffffff1673ffffffffffffffffffffffffffffffffffffffff16815260200190815260200160002060008473ffffffffffffffffffffffffffffffffffffffff1673ffffffffffffffffffffffffffffffffffffffff16815260200190815260200160002060006101000a81548160ff0219169083151502179055508173ffffffffffffffffffffffffffffffffffffffff168373ffffffffffffffffffffffffffffffffffffffff167f17307eab39ab6107e8899845ad3d59bd9653f200f220920489ca2b5937696c3183604051611378919061235f565b60405180910390a3505050565b611390848484610d9f565b61139c848484846118ab565b6113db576040517f08c379a00000000000000000000000000000000000000000000000000000000081526004016113d2906130c9565b60405180910390fd5b50505050565b60606113ec82610bfe565b6000600a6000848152602001908152602001600020805461140c90612991565b80601f016020809104026020016040519081016040528092919081815260200182805461143890612991565b80156114855780601f1061145a57610100808354040283529160200191611485565b820191906000526020600020905b81548152906001019060200180831161146857829003601f168201915b505050505090506000611496611a32565b905060008151036114ab5781925050506114ee565b6000825111156114e05780826040516020016114c8929190613125565b604051602081830303815290604052925050506114ee565b6114e984611a49565b925050505b919050565b6001816000016000828254019250508190555050565b600081600001549050919050565b600073ffffffffffffffffffffffffffffffffffffffff168273ffffffffffffffffffffffffffffffffffffffff1603611586576040517f08c379a000000000000000000000000000000000000000000000000000000000815260040161157d90613195565b60405180910390fd5b61158f81611852565b156115cf576040517f08c379a00000000000000000000000000000000000000000000000000000000081526004016115c690613201565b60405180910390fd5b6115dd600083836001611893565b6115e681611852565b15611626576040517f08c379a000000000000000000000000000000000000000000000000000000000815260040161161d90613201565b60405180910390fd5b6001600360008473ffffffffffffffffffffffffffffffffffffffff1673ffffffffffffffffffffffffffffffffffffffff16815260200190815260200160002060008282540192505081905550816002600083815260200190815260200160002060006101000a81548173ffffffffffffffffffffffffffffffffffffffff021916908373ffffffffffffffffffffffffffffffffffffffff160217905550808273ffffffffffffffffffffffffffffffffffffffff16600073ffffffffffffffffffffffffffffffffffffffff167fddf252ad1be2c89b69c2b068fc378daa952ba7f163c4a11628f55a4df523b3ef60405160405180910390a46117306000838360016118a5565b5050565b61173d82611852565b61177c576040517f08c379a000000000000000000000000000000000000000000000000000000000815260040161177390613293565b60405180910390fd5b80600a6000848152602001908152602001600020908161179c919061345f565b507ff8e1a15aba9398e019f0b49df1a4fde98ee17ae345cb5f6b5e2c27f5033e8ce7826040516117cc9190612566565b60405180910390a15050565b60007f780e9d63000000000000000000000000000000000000000000000000000000007bffffffffffffffffffffffffffffffffffffffffffffffffffffffff1916827bffffffffffffffffffffffffffffffffffffffffffffffffffffffff1916148061184b575061184a82611ab1565b5b9050919050565b60008073ffffffffffffffffffffffffffffffffffffffff1661187483611098565b73ffffffffffffffffffffffffffffffffffffffff1614159050919050565b61189f84848484611b93565b50505050565b50505050565b60006118cc8473ffffffffffffffffffffffffffffffffffffffff16611cf1565b15611a25578373ffffffffffffffffffffffffffffffffffffffff1663150b7a026118f5610c49565b8786866040518563ffffffff1660e01b81526004016119179493929190613586565b6020604051808303816000875af192505050801561195357506040513d601f19601f8201168201806040525081019061195091906135e7565b60015b6119d5573d8060008114611983576040519150601f19603f3d011682016040523d82523d6000602084013e611988565b606091505b5060008151036119cd576040517f08c379a00000000000000000000000000000000000000000000000000000000081526004016119c4906130c9565b60405180910390fd5b805181602001fd5b63150b7a0260e01b7bffffffffffffffffffffffffffffffffffffffffffffffffffffffff1916817bffffffffffffffffffffffffffffffffffffffffffffffffffffffff191614915050611a2a565b600190505b949350505050565b606060405180602001604052806000815250905090565b6060611a5482610bfe565b6000611a5e611a32565b90506000815111611a7e5760405180602001604052806000815250611aa9565b80611a8884611d14565b604051602001611a99929190613125565b6040516020818303038152906040525b915050919050565b60007f80ac58cd000000000000000000000000000000000000000000000000000000007bffffffffffffffffffffffffffffffffffffffffffffffffffffffff1916827bffffffffffffffffffffffffffffffffffffffffffffffffffffffff19161480611b7c57507f5b5e139f000000000000000000000000000000000000000000000000000000007bffffffffffffffffffffffffffffffffffffffffffffffffffffffff1916827bffffffffffffffffffffffffffffffffffffffffffffffffffffffff1916145b80611b8c5750611b8b82611de2565b5b9050919050565b611b9f84848484611e4c565b6001811115611be3576040517f08c379a0000000000000000000000000000000000000000000000000000000008152600401611bda90613686565b60405180910390fd5b6000829050600073ffffffffffffffffffffffffffffffffffffffff168573ffffffffffffffffffffffffffffffffffffffff1603611c2a57611c2581611e52565b611c69565b8373ffffffffffffffffffffffffffffffffffffffff168573ffffffffffffffffffffffffffffffffffffffff1614611c6857611c678582611e9b565b5b5b600073ffffffffffffffffffffffffffffffffffffffff168473ffffffffffffffffffffffffffffffffffffffff1603611cab57611ca681612008565b611cea565b8473ffffffffffffffffffffffffffffffffffffffff168473ffffffffffffffffffffffffffffffffffffffff1614611ce957611ce884826120d9565b5b5b5050505050565b6000808273ffffffffffffffffffffffffffffffffffffffff163b119050919050565b606060006001611d2384612158565b01905060008167ffffffffffffffff811115611d4257611d41612677565b5b6040519080825280601f01601f191660200182016040528015611d745781602001600182028036833780820191505090505b509050600082602001820190505b600115611dd7578080600190039150507f3031323334353637383961626364656600000000000000000000000000000000600a86061a8153600a8581611dcb57611dca6136a6565b5b04945060008503611d82575b819350505050919050565b60007f01ffc9a7000000000000000000000000000000000000000000000000000000007bffffffffffffffffffffffffffffffffffffffffffffffffffffffff1916827bffffffffffffffffffffffffffffffffffffffffffffffffffffffff1916149050919050565b50505050565b6008805490506009600083815260200190815260200160002081905550600881908060018154018082558091505060019003906000526020600020016000909190919091505550565b60006001611ea884610835565b611eb29190613704565b9050600060076000848152602001908152602001600020549050818114611f97576000600660008673ffffffffffffffffffffffffffffffffffffffff1673ffffffffffffffffffffffffffffffffffffffff168152602001908152602001600020600084815260200190815260200160002054905080600660008773ffffffffffffffffffffffffffffffffffffffff1673ffffffffffffffffffffffffffffffffffffffff168152602001908152602001600020600084815260200190815260200160002081905550816007600083815260200190815260200160002081905550505b6007600084815260200190815260200160002060009055600660008573ffffffffffffffffffffffffffffffffffffffff1673ffffffffffffffffffffffffffffffffffffffff16815260200190815260200160002060008381526020019081526020016000206000905550505050565b6000600160088054905061201c9190613704565b905060006009600084815260200190815260200160002054905060006008838154811061204c5761204b612c9c565b5b90600052602060002001549050806008838154811061206e5761206d612c9c565b5b9060005260206000200181905550816009600083815260200190815260200160002081905550600960008581526020019081526020016000206000905560088054806120bd576120bc613738565b5b6001900381819060005260206000200160009055905550505050565b60006120e483610835565b905081600660008573ffffffffffffffffffffffffffffffffffffffff1673ffffffffffffffffffffffffffffffffffffffff168152602001908152602001600020600083815260200190815260200160002081905550806007600084815260200190815260200160002081905550505050565b600080600090507a184f03e93ff9f4daa797ed6e38ed64bf6a1f01000000000000000083106121b6577a184f03e93ff9f4daa797ed6e38ed64bf6a1f01000000000000000083816121ac576121ab6136a6565b5b0492506040810190505b6d04ee2d6d415b85acef810000000083106121f3576d04ee2d6d415b85acef810000000083816121e9576121e86136a6565b5b0492506020810190505b662386f26fc10000831061222257662386f26fc100008381612218576122176136a6565b5b0492506010810190505b6305f5e100831061224b576305f5e1008381612241576122406136a6565b5b0492506008810190505b6127108310612270576127108381612266576122656136a6565b5b0492506004810190505b606483106122935760648381612289576122886136a6565b5b0492506002810190505b600a83106122a2576001810190505b80915050919050565b6000604051905090565b600080fd5b600080fd5b60007fffffffff0000000000000000000000000000000000000000000000000000000082169050919050565b6122f4816122bf565b81146122ff57600080fd5b50565b600081359050612311816122eb565b92915050565b60006020828403121561232d5761232c6122b5565b5b600061233b84828501612302565b91505092915050565b60008115159050919050565b61235981612344565b82525050565b60006020820190506123746000830184612350565b92915050565b600081519050919050565b600082825260208201905092915050565b60005b838110156123b4578082015181840152602081019050612399565b60008484015250505050565b6000601f19601f8301169050919050565b60006123dc8261237a565b6123e68185612385565b93506123f6818560208601612396565b6123ff816123c0565b840191505092915050565b6000602082019050818103600083015261242481846123d1565b905092915050565b6000819050919050565b61243f8161242c565b811461244a57600080fd5b50565b60008135905061245c81612436565b92915050565b600060208284031215612478576124776122b5565b5b60006124868482850161244d565b91505092915050565b600073ffffffffffffffffffffffffffffffffffffffff82169050919050565b60006124ba8261248f565b9050919050565b6124ca816124af565b82525050565b60006020820190506124e560008301846124c1565b92915050565b6124f4816124af565b81146124ff57600080fd5b50565b600081359050612511816124eb565b92915050565b6000806040838503121561252e5761252d6122b5565b5b600061253c85828601612502565b925050602061254d8582860161244d565b9150509250929050565b6125608161242c565b82525050565b600060208201905061257b6000830184612557565b92915050565b60008060006060848603121561259a576125996122b5565b5b60006125a886828701612502565b93505060206125b986828701612502565b92505060406125ca8682870161244d565b9150509250925092565b6000602082840312156125ea576125e96122b5565b5b60006125f884828501612502565b91505092915050565b61260a81612344565b811461261557600080fd5b50565b60008135905061262781612601565b92915050565b60008060408385031215612644576126436122b5565b5b600061265285828601612502565b925050602061266385828601612618565b9150509250929050565b600080fd5b600080fd5b7f4e487b7100000000000000000000000000000000000000000000000000000000600052604160045260246000fd5b6126af826123c0565b810181811067ffffffffffffffff821117156126ce576126cd612677565b5b80604052505050565b60006126e16122ab565b90506126ed82826126a6565b919050565b600067ffffffffffffffff82111561270d5761270c612677565b5b612716826123c0565b9050602081019050919050565b82818337600083830152505050565b6000612745612740846126f2565b6126d7565b90508281526020810184848401111561276157612760612672565b5b61276c848285612723565b509392505050565b600082601f8301126127895761278861266d565b5b8135612799848260208601612732565b91505092915050565b600080600080608085870312156127bc576127bb6122b5565b5b60006127ca87828801612502565b94505060206127db87828801612502565b93505060406127ec8782880161244d565b925050606085013567ffffffffffffffff81111561280d5761280c6122ba565b5b61281987828801612774565b91505092959194509250565b6000806040838503121561283c5761283b6122b5565b5b600061284a85828601612502565b925050602061285b85828601612502565b9150509250929050565b600067ffffffffffffffff8211156128805761287f612677565b5b612889826123c0565b9050602081019050919050565b60006128a96128a484612865565b6126d7565b9050828152602081018484840111156128c5576128c4612672565b5b6128d0848285612723565b509392505050565b600082601f8301126128ed576128ec61266d565b5b81356128fd848260208601612896565b91505092915050565b6000806040838503121561291d5761291c6122b5565b5b600061292b85828601612502565b925050602083013567ffffffffffffffff81111561294c5761294b6122ba565b5b612958858286016128d8565b9150509250929050565b7f4e487b7100000000000000000000000000000000000000000000000000000000600052602260045260246000fd5b600060028204905060018216806129a957607f821691505b6020821081036129bc576129bb612962565b5b50919050565b7f4552433732313a20617070726f76616c20746f2063757272656e74206f776e6560008201527f7200000000000000000000000000000000000000000000000000000000000000602082015250565b6000612a1e602183612385565b9150612a29826129c2565b604082019050919050565b60006020820190508181036000830152612a4d81612a11565b9050919050565b7f4552433732313a20617070726f76652063616c6c6572206973206e6f7420746f60008201527f6b656e206f776e6572206f7220617070726f76656420666f7220616c6c000000602082015250565b6000612ab0603d83612385565b9150612abb82612a54565b604082019050919050565b60006020820190508181036000830152612adf81612aa3565b9050919050565b7f4552433732313a2063616c6c6572206973206e6f7420746f6b656e206f776e6560008201527f72206f7220617070726f76656400000000000000000000000000000000000000602082015250565b6000612b42602d83612385565b9150612b4d82612ae6565b604082019050919050565b60006020820190508181036000830152612b7181612b35565b9050919050565b7f455243373231456e756d657261626c653a206f776e657220696e646578206f7560008201527f74206f6620626f756e6473000000000000000000000000000000000000000000602082015250565b6000612bd4602b83612385565b9150612bdf82612b78565b604082019050919050565b60006020820190508181036000830152612c0381612bc7565b9050919050565b7f455243373231456e756d657261626c653a20676c6f62616c20696e646578206f60008201527f7574206f6620626f756e64730000000000000000000000000000000000000000602082015250565b6000612c66602c83612385565b9150612c7182612c0a565b604082019050919050565b60006020820190508181036000830152612c9581612c59565b9050919050565b7f4e487b7100000000000000000000000000000000000000000000000000000000600052603260045260246000fd5b7f4552433732313a20696e76616c696420746f6b656e2049440000000000000000600082015250565b6000612d01601883612385565b9150612d0c82612ccb565b602082019050919050565b60006020820190508181036000830152612d3081612cf4565b9050919050565b7f4552433732313a2061646472657373207a65726f206973206e6f74206120766160008201527f6c6964206f776e65720000000000000000000000000000000000000000000000602082015250565b6000612d93602983612385565b9150612d9e82612d37565b604082019050919050565b60006020820190508181036000830152612dc281612d86565b9050919050565b7f4f776e61626c653a206e6577206f776e657220697320746865207a65726f206160008201527f6464726573730000000000000000000000000000000000000000000000000000602082015250565b6000612e25602683612385565b9150612e3082612dc9565b604082019050919050565b60006020820190508181036000830152612e5481612e18565b9050919050565b7f4552433732313a207472616e736665722066726f6d20696e636f72726563742060008201527f6f776e6572000000000000000000000000000000000000000000000000000000602082015250565b6000612eb7602583612385565b9150612ec282612e5b565b604082019050919050565b60006020820190508181036000830152612ee681612eaa565b9050919050565b7f4552433732313a207472616e7366657220746f20746865207a65726f2061646460008201527f7265737300000000000000000000000000000000000000000000000000000000602082015250565b6000612f49602483612385565b9150612f5482612eed565b604082019050919050565b60006020820190508181036000830152612f7881612f3c565b9050919050565b7f4f776e61626c653a2063616c6c6572206973206e6f7420746865206f776e6572600082015250565b6000612fb5602083612385565b9150612fc082612f7f565b602082019050919050565b60006020820190508181036000830152612fe481612fa8565b9050919050565b7f4552433732313a20617070726f766520746f2063616c6c657200000000000000600082015250565b6000613021601983612385565b915061302c82612feb565b602082019050919050565b6000602082019050818103600083015261305081613014565b9050919050565b7f4552433732313a207472616e7366657220746f206e6f6e20455243373231526560008201527f63656976657220696d706c656d656e7465720000000000000000000000000000602082015250565b60006130b3603283612385565b91506130be82613057565b604082019050919050565b600060208201905081810360008301526130e2816130a6565b9050919050565b600081905092915050565b60006130ff8261237a565b61310981856130e9565b9350613119818560208601612396565b80840191505092915050565b600061313182856130f4565b915061313d82846130f4565b91508190509392505050565b7f4552433732313a206d696e7420746f20746865207a65726f2061646472657373600082015250565b600061317f602083612385565b915061318a82613149565b602082019050919050565b600060208201905081810360008301526131ae81613172565b9050919050565b7f4552433732313a20746f6b656e20616c7265616479206d696e74656400000000600082015250565b60006131eb601c83612385565b91506131f6826131b5565b602082019050919050565b6000602082019050818103600083015261321a816131de565b9050919050565b7f45524337323155524953746f726167653a2055524920736574206f66206e6f6e60008201527f6578697374656e7420746f6b656e000000000000000000000000000000000000602082015250565b600061327d602e83612385565b915061328882613221565b604082019050919050565b600060208201905081810360008301526132ac81613270565b9050919050565b60008190508160005260206000209050919050565b60006020601f8301049050919050565b600082821b905092915050565b6000600883026133157fffffffffffffffffffffffffffffffffffffffffffffffffffffffffffffffff826132d8565b61331f86836132d8565b95508019841693508086168417925050509392505050565b6000819050919050565b600061335c6133576133528461242c565b613337565b61242c565b9050919050565b6000819050919050565b61337683613341565b61338a61338282613363565b8484546132e5565b825550505050565b600090565b61339f613392565b6133aa81848461336d565b505050565b5b818110156133ce576133c3600082613397565b6001810190506133b0565b5050565b601f821115613413576133e4816132b3565b6133ed846132c8565b810160208510156133fc578190505b613410613408856132c8565b8301826133af565b50505b505050565b600082821c905092915050565b600061343660001984600802613418565b1980831691505092915050565b600061344f8383613425565b9150826002028217905092915050565b6134688261237a565b67ffffffffffffffff81111561348157613480612677565b5b61348b8254612991565b6134968282856133d2565b600060209050601f8311600181146134c957600084156134b7578287015190505b6134c18582613443565b865550613529565b601f1984166134d7866132b3565b60005b828110156134ff578489015182556001820191506020850194506020810190506134da565b8683101561351c5784890151613518601f891682613425565b8355505b6001600288020188555050505b505050505050565b600081519050919050565b600082825260208201905092915050565b600061355882613531565b613562818561353c565b9350613572818560208601612396565b61357b816123c0565b840191505092915050565b600060808201905061359b60008301876124c1565b6135a860208301866124c1565b6135b56040830185612557565b81810360608301526135c7818461354d565b905095945050505050565b6000815190506135e1816122eb565b92915050565b6000602082840312156135fd576135fc6122b5565b5b600061360b848285016135d2565b91505092915050565b7f455243373231456e756d657261626c653a20636f6e736563757469766520747260008201527f616e7366657273206e6f7420737570706f727465640000000000000000000000602082015250565b6000613670603583612385565b915061367b82613614565b604082019050919050565b6000602082019050818103600083015261369f81613663565b9050919050565b7f4e487b7100000000000000000000000000000000000000000000000000000000600052601260045260246000fd5b7f4e487b7100000000000000000000000000000000000000000000000000000000600052601160045260246000fd5b600061370f8261242c565b915061371a8361242c565b9250828203905081811115613732576137316136d5565b5b92915050565b7f4e487b7100000000000000000000000000000000000000000000000000000000600052603160045260246000fdfea2646970667358221220e10030d0a5764baa3441a3392cf201d355fc3b24d11edfa078603a4b59af884c64736f6c63430008120033",
  "linkReferences": {},
  "deployedLinkReferences": {}
}